:100000000C945C000C9479000C9479000C947900A9
:100010000C9479000C9479000C9479000C9479007C
:100020000C9479000C9479000C9479000C9479006C
:100030000C9479000C9479000C9479000C9479005C
:100040000C947D010C9479000C9479000C94790047
:100050000C9479000C9479000C9479000C9479003C
:100060000C9479000C947900000000080002010053
:100070000003040700000000000000000000000072
:10008000250028002B0000000000240027002A0083
:10009000040404040404040402020202020203032E
:1000A0000303030301020408102040800102040836
:1000B000102001020408102011241FBECFEFD8E049
:1000C000DEBFCDBF11E0A0E0B1E0E6EDF4E002C09C
:1000D00005900D92AE30B107D9F721E0AEE0B1E066
:1000E00001C01D92A731B207E1F70E94C7010C942D
:1000F00069020C94000090E0FC01EC55FF4F249144
:1001000080579F4FFC018491882399F090E0880FDD
:10011000991FFC01EA57FF4FA591B491FC01E458E7
:10012000FF4F859194918FB7F894EC91E22BEC936B
:100130008FBF089590E0FC01E859FF4F2491FC0126
:10014000EC55FF4F3491FC01E057FF4FE491EE2353
:10015000C9F0222339F0233001F1A8F4213019F13C
:10016000223029F1F0E0EE0FFF1FE458FF4FA59178
:10017000B4918FB7F894EC91611126C030953E236D
:100180003C938FBF08952730A9F02830C9F0243060
:1001900049F7809180008F7D03C0809180008F7728
:1001A00080938000DFCF84B58F7784BDDBCF84B5AB
:1001B0008F7DFBCF8091B0008F778093B000D2CF3E
:1001C0008091B0008F7DF9CF3E2BDACF3FB7F89406
:1001D0008091130190911401A0911501B091160125
:1001E00026B5A89B05C02F3F19F00196A11DB11D92
:1001F0003FBFBA2FA92F982F8827BC01CD01620FCE
:10020000711D811D911D42E0660F771F881F991F88
:100210004A95D1F708958F929F92AF92BF92CF9255
:10022000DF92EF92FF924B015C010E94E6006B01AE
:100230007C010E94E6006C197D098E099F09683EC9
:10024000734081059105A8F321E0821A9108A10865
:10025000B10888EEC80E83E0D81EE11CF11C8114A1
:100260009104A104B10429F7FF90EF90DF90CF90A3
:10027000BF90AF909F908F900895CF93DF93C82F3A
:10028000682F617084E00E949A00D0E0BE017595ED
:100290006795617085E00E949A00BE01759567952B
:1002A00075956795617086E00E949A00BE0123E013
:1002B000759567952A95E1F787E00E949A0061E0BD
:1002C00089E00E949A0060E089E00E949A008BE831
:1002D00091E00197F1F7DF91CF910895CF93C82F67
:1002E00088E00E949A008C2F82958F700E943D01B9
:1002F0008C2F8F70CF910C943D011F920F920FB6EF
:100300000F9211242F933F938F939F93AF93BF939B
:1003100080910F0190911001A0911101B0911201F3
:1003200030910E0123E0230F2D3758F50196A11DC2
:10033000B11D20930E0180930F0190931001A093A3
:100340001101B09312018091130190911401A091B9
:100350001501B09116010196A11DB11D80931301E5
:1003600090931401A0931501B0931601BF91AF9122
:100370009F918F913F912F910F900FBE0F901F90E3
:10038000189526E8230F0296A11DB11DD2CF7894AF
:1003900084B5826084BD84B5816084BD85B582608A
:1003A00085BD85B5816085BD80916E00816080933B
:1003B0006E001092810080918100826080938100A4
:1003C00080918100816080938100809180008160B4
:1003D000809380008091B10084608093B10080910F
:1003E000B00081608093B00080917A008460809337
:1003F0007A0080917A00826080937A0080917A00FE
:10040000816080937A0080917A00806880937A007E
:100410001092C10088E00E947B0089E00E947B006E
:1004200084E00E947B0085E00E947B0086E00E94C1
:100430007B0087E00E947B0060E088E00E949A00D9
:1004400060E089E00E949A0062E370E080E090E062
:100450000E940B0183E00E943D0165E070E080E0B6
:1004600090E00E940B0183E00E943D01C3E5D2E0D1
:10047000CE010197F1F783E00E943D012197F1F74A
:1004800082E00E943D0160E088E20E946E0160E02F
:100490008CE00E946E0160E081E00E946E0162E0EB
:1004A00070E080E090E00E940B0160E086E00E9436
:1004B0006E01C0E0D1E08991811107C0C0E0D0E0B9
:1004C0002097F1F30E940000FBCF61E00E946E01D3
:0604D000F2CFF894FFCF0B
:0E04D60048656C6C6F2C20576F726C642100AF
:00000001FF
